:100000000C9462000C948A000C948A000C948A0070
:100010000C948A000C948A000C948A000C948A0038
:100020000C948A000C948A000C948A000C94AC0402
:100030000C948A000C948A000C948A000C948A0018
:100040000C940A040C948A000C947A040C945404C2
:100050000C948A000C948A000C948A000C948A00F8
:100060000C948A000C948A000000000023002600F3
:10007000290000000000240027002A0000000000E2
:10008000250028002B0004040404040404040202D4
:100090000202020203030303030301020408102007
:1000A0004080010204081020010204081020000012
:1000B0000008000201000003040700000000000027
:1000C0000000C80511241FBECFEFD8E0DEBFCDBFB2
:1000D00012E0A0E0B1E0EAE0F3E102C005900D9289
:1000E000A03DB107D9F723E0A0EDB2E001C01D9219
:1000F000AC3AB207E1F710E0C2E6D0E004C02197C5
:10010000FE010E944C08C136D107C9F70E940006C3
:100110000C9483090C94000090E0FC01E255FF4F21
:100120002491FC01E656FF4F3491FC01EA57FF4F42
:10013000E491EE23C9F0222339F0233001F1A8F431
:10014000213019F1223029F1F0E0EE0FFF1FE458C1
:10015000FF4FA591B4918FB7F894EC91611126C02F
:1001600030953E233C938FBF08952730A9F0283067
:10017000C9F0243049F7809180008F7D03C08091C1
:1001800080008F7780938000DFCF84B58F7784BD28
:10019000DBCF84B58F7DFBCF8091B0008F778093CC
:1001A000B000D2CF8091B0008F7DF9CF3E2BDACF57
:1001B000CF93DF9390E0FC01E656FF4F24918A57DE
:1001C0009F4FFC0184918823D1F090E0880F991F04
:1001D000FC01EE58FF4FA591B491FC01E458FF4F8C
:1001E000C591D49161110EC09FB7F8948C91E22F04
:1001F000E0958E238C932881E223E8839FBFDF91D3
:10020000CF9108958FB7F894EC91E22BEC938FBFC8
:10021000F6CF1F93CF93DF93EC01162F88818C309C
:1002200008F04EC061E0812F0E94D8008881282FFD
:1002300030E0F901EE0FFF1FE20FF31FEE51FD4F0B
:100240001F736081607C612B608319821A822CE0AD
:10025000622F0E944008829FB001112430E020E00C
:10026000AB01420F531FFA01EE0FFF1FE40FF51F02
:10027000EE51FD4F908196FD16C02F5F3F4F2C3001
:10028000310571F781110FC01092800082E08093D8
:1002900081001092850010928400B19A80916F00C5
:1002A000826080936F00E8818E2F90E0FC01EE0F5A
:1002B000FF1FE80FF91FEE51FD4F8081806480839E
:1002C0008881DF91CF911F9108953FB7F894809175
:1002D000DE029091DF02A091E002B091E10226B52A
:1002E000A89B05C02F3F19F00196A11DB11D3FBF6E
:1002F000BA2FA92F982F8827BC01CD01620F711D3D
:10030000811D911D42E0660F771F881F991F4A9536
:10031000D1F708958F929F92AF92BF92CF92DF92C2
:10032000EF92FF924B015C010E9465016B017C0121
:100330000E9465016C197D098E099F09683E734012
:1003400081059105A8F321E0821A9108A108B1085E
:1003500088EEC80E83E0D81EE11CF11C81149104C4
:10036000A104B10429F7FF90EF90DF90CF90BF90E8
:10037000AF909F908F900895AF92BF92CF92DF92EF
:10038000EF92FF920F931F93CF93DF936C017B014A
:100390008B01040F151FEB015E01AE18BF08C017DB
:1003A000D10759F06991D601ED91FC910190F0814E
:1003B000E02DC6010995892B79F7C501DF91CF9111
:1003C0001F910F91FF90EF90DF90CF90BF90AF9073
:1003D0000895FC01538D448D252F30E0842F90E04B
:1003E000821B930B541710F0CF9608950197089530
:1003F000FC01918D828D981761F0A28DAE0FBF2FF9
:10040000B11D5D968C91928D9F5F9F73928F90E04E
:1004100008958FEF9FEF0895FC01918D828D9817BD
:1004200031F0828DE80FF11D858D90E008958FEFFA
:100430009FEF0895FC01918D228D892F90E0805CC3
:100440009F4F821B91098F739927089586E093E04F
:100450000E941A0221E0892B09F420E0822F0895DE
:10046000FC01A48DA80FB92FB11DA35ABF4F2C9129
:10047000848D90E001968F739927848FA689B78920
:100480002C93A089B1898C91837080648C93938D17
:10049000848D981306C00288F389E02D80818F7DBA
:1004A00080830895EF92FF920F931F93CF93DF9372
:1004B000EC0181E0888F9B8D8C8D98131AC0E889A0
:1004C000F989808185FF15C09FB7F894EE89FF896F
:1004D0006083E889F98980818370806480839FBF0D
:1004E00081E090E0DF91CF911F910F91FF90EF900D
:1004F0000895F62E0B8D10E00F5F1F4F0F7311271D
:10050000E02E8C8D8E110CC00FB607FCFACFE88957
:10051000F989808185FFF5CFCE010E943002F1CFAD
:10052000EB8DEC0FFD2FF11DE35AFF4FF0829FB7CB
:10053000F8940B8FEA89FB8980818062CFCFCF93BB
:10054000DF93EC01888D8823B9F0AA89BB89E889FB
:10055000F9898C9185FD03C0808186FD0DC00FB6A1
:1005600007FCF7CF8C9185FFF2CF808185FFEDCF1F
:10057000CE010E943002E9CFDF91CF9108958F9292
:100580009F92AF92BF92FF920F931F93CF93DF93EF
:10059000FC01F0808BE08F1508F44AC0828108E5E9
:1005A00012E0081B110987FD1395000F111F000FA2
:1005B000111F8181C8E8D0E0C81BD10987FDD39500
:1005C000CC0FDD1FCC0FDD1F4E010D2E000CAA0835
:1005D000BB089801012E000C440B550B2819390952
:1005E0004A095B09DB010E94070824EB30E040E088
:1005F00050E00E94DD07820E931EA41EB51E8C16CD
:100600009D062CF0E801801691060CF4E401229777
:10061000CC0FDD1F2FB7F8948F2D90E0FC01EE0F6B
:10062000FF1FE80FF91FEE51FD4FD283C1832FBF8B
:10063000DF91CF911F910F91FF90BF90AF909F904E
:100640008F900895FC0101900020E9F73197AF01E8
:10065000481B590BBC0186E093E00C94BC01CF937E
:10066000DF93682F86E093E00E945202EC0185E15F
:1006700091E00E9422038C0F9D1FDF91CF9108957E
:10068000CF93DF930E942203EC0185E191E00E9469
:1006900022038C0F9D1FDF91CF910895CF93DF939D
:1006A0002FB7F8944091DA025091DB026091DC029E
:1006B0007091DD022FBF4093D2025093D30260931A
:1006C000D4027093D50221E02093D80290930101C7
:1006D0008093000181309105D1F00297E9F088E123
:1006E00091E00E9440036EE170E089EA93E00E948D
:1006F000BF026CE271E080E090E00E948A0164E158
:1007000070E086EA93E0DF91CF910C94BF028FE214
:1007100091E00E944003F3CF83E491E00E94400304
:1007200064E670E083EA93E00E94BF0264EF71E048
:1007300080E090E00E948A0164E170E086EA93E044
:100740000E94BF0264EF71E080E090E00E948A01A5
:100750006EE670E086EA93E00E94BF0264EF71E00B
:1007600080E090E00E948A01C4E6D0E0BE0183EA06
:1007700093E00E94BF026FE070E080E090E00E9492
:100780008A012196C739D10589F764EF71E080E0CD
:1007900090E0DF91CF910C948A01CF93DF93D1E069
:1007A00086E093E00E941A021816190654F586E0B6
:1007B00093E00E94F801C82F82E591E00E94220395
:1007C0008C2F0E942F0380ED8C0F833088F4809152
:1007D000D60281110DC0C0930201D093D60288E6E3
:1007E00091E00E942203809102010E942F03D8CF42
:1007F000CA30B1F2CD30A1F284E891E00E9440030A
:10080000CFCFDF91CF9108950E94260281110C94E1
:10081000CD0308951F920F920FB60F9211242F93BC
:100820003F938F939F93AF93BF938091DA02909100
:10083000DB02A091DC02B091DD023091D90223E00D
:10084000230F2D3758F50196A11DB11D2093D90214
:100850008093DA029093DB02A093DC02B093DD0276
:100860008091DE029091DF02A091E002B091E1025E
:100870000196A11DB11D8093DE029093DF02A0932B
:10088000E002B093E102BF91AF919F918F913F91B0
:100890002F910F900FBE0F901F90189526E8230FF1
:1008A0000296A11DB11DD2CF1F920F920FB60F92CB
:1008B00011242F933F934F935F936F937F938F9365
:1008C0009F93AF93BF93EF93FF9386E093E00E94D3
:1008D0003002FF91EF91BF91AF919F918F917F91E6
:1008E0006F915F914F913F912F910F900FBE0F909D
:1008F0001F9018951F920F920FB60F9211242F93ED
:100900008F939F93EF93FF93E0911603F09117035A
:100910008081E0911C03F0911D0382FD1BC090813A
:1009200080911F038F5F8F7320912003821741F006
:10093000E0911F03F0E0EA5FFC4F958F80931F0367
:10094000FF91EF919F918F912F910F900FBE0F907C
:100950001F9018958081F4CF1F920F920FB60F92BF
:1009600011242F933F934F935F936F937F938F93B4
:100970009F93AF93BF93CF93DF93EF93FF938091B8
:10098000D002C091D102D0E087FF24C01092850030
:10099000109284008091D0028F5F8093D00280916A
:1009A000D002082E000C990B8C179D0724F480911F
:1009B000D0028C30C4F1809184009091850004961F
:1009C00080349C4908F47AC080918400909185001D
:1009D000049676C08091D002082E000C990B8C17DB
:1009E0009D07C4F6E091D0028E2FEE0F990BFC010B
:1009F000EE0FFF1FE80FF91FEE51FD4F808186FFBC
:100A0000C9CFE091D0028E2FEE0F990BFC01EE0FB3
:100A1000FF1FE80FF91FEE51FD4F808160E08F73DB
:100A20000E948C00B7CF2091840030918500E09126
:100A3000D0028E2FEE0F990BFC01EE0FFF1FE80F77
:100A4000F91FEE51FD4F81819281820F931F909388
:100A5000890080938800E091D0028E2FEE0F990BD1
:100A6000FC01EE0FFF1FE80FF91FEE51FD4F8081D3
:100A700086FF11C0E091D0028E2FEE0F990BFC0182
:100A8000EE0FFF1FE80FF91FEE51FD4F808161E06F
:100A90008F730E948C00FF91EF91DF91CF91BF91F6
:100AA000AF919F918F917F916F915F914F913F9106
:100AB0002F910F900FBE0F901F90189580E49CE926
:100AC00090938900809388008FEF8093D002E3CFCA
:100AD000CF92DF92EF92FF920F931F93E82FF92F9F
:100AE00005C0015011092109310961F19081962356
:100AF0009417B9F305C0015011092109310911F109
:100B0000908196239413F7CFC12CD12CE12CF12C9A
:100B10000AC08FEFC81AD80AE80AF80A0C151D0592
:100B20002E053F0579F080818623841791F36C2D83
:100B30007D2D8E2D9F2D1F910F91FF90EF90DF90B7
:100B4000CF90089560E070E080E090E01F910F91F9
:100B5000FF90EF90DF90CF900895FC019091D1022B
:100B60009C3098F481E0890F8093D1029083892F83
:100B700090E0FC01EE0FFF1FE80FF91FEE51FD4F53
:100B800088EB9BE09283818308958FEF80830895A3
:100B9000E6E0F3E01382128288EE93E0A0E0B0E09A
:100BA00084839583A683B78387E091E091838083D4
:100BB00085EC90E09587848784EC90E09787868722
:100BC00080EC90E0918B808B81EC90E0938B828B1A
:100BD00082EC90E0958B848B86EC90E0978B868BF3
:100BE000118E128E138E148E89EA93E00E94AD0549
:100BF00086EA93E00E94AD0583EA93E00C94AD058C
:100C0000789484B5826084BD84B5816084BD85B5E7
:100C1000826085BD85B5816085BD80916E008160F3
:100C200080936E0010928100809181008260809399
:100C3000810080918100816080938100809180009B
:100C40008160809380008091B10084608093B100C6
:100C50008091B00081608093B00080917A008460C0
:100C600080937A0080917A00826080937A008091EC
:100C70007A00816080937A0080917A008068809306
:100C80007A001092C100E0911603F091170382E000
:100C90008083E0911203F09113031082E09114031A
:100CA000F091150380E1808310921E03E0911A03F6
:100CB000F0911B0386E08083E0911803F091190303
:100CC000808180618083E0911803F0911903808115
:100CD00088608083E0911803F09119038081806817
:100CE0008083E0911803F091190380818F7D8083C8
:100CF00061E082E00E94D80060E083E00E94D800BA
:100D000061E084E00E94D80060E085E00E94D800A5
:100D100061E086E00E94D80060E087E00E94D80091
:100D200061E08BE00E94D80060E08CE00E94D80077
:100D300061E088E00E94D80060E088E00E948C00BA
:100D400066E070E089EA93E00E94090169E070E0E2
:100D500086EA93E00E9409016AE070E083EA93E08A
:100D60000E9409016EE670E089EA93E00E94BF02EA
:100D70006EE670E086EA93E00E94BF0264EB70E0EA
:100D800083EA93E00E94BF0264EF71E080E090E0AC
:100D90000E948A0181EA91E00E94400380EC91E088
:100DA0000E9440038AEE91E00E94400384E392E0B7
:100DB0000E944003C3E0D0E093E2E92EF12C26EA42
:100DC000C22E20E0D22E32E9A32E30E0B32E7724BB
:100DD0007A9488248A94982C60E08BE00E948C009E
:100DE000CE010197F1F761E08BE00E948C00C70112
:100DF0000197F1F760E08BE00E948C00F6016491AE
:100E0000F5018491E82FF0E0EE0FFF1FE859FF4F46
:100E10008591949100E315E720E030E0462F0E9491
:100E20006805611571058105910529F06F5F7F4F98
:100E30008F4F9F4F9F702091D802211129C00E948F
:100E40008A0826E933E44BE05DE30E94EE0820E0E7
:100E500030E040E05FE30E94EE080E9452086450D8
:100E6000710981099109663071058105910580F448
:100E70008091D70281110CC064E486E093E00E9467
:100E8000520283E692E00E94400381E08093D70201
:100E90008091D602882369F01092D60280910201D7
:100EA000803309F061C090E080E00E944E037092B0
:100EB00002018091D802882309F448C02FB7F89422
:100EC0008091DA029091DB02A091DC02B091DD0208
:100ED0002FBF4091D2025091D3026091D402709101
:100EE000D502841B950BA60BB70B883B9B40A10535
:100EF000B10560F18091000190910101813091056F
:100F000009F445C08230910509F446C0892B91F45B
:100F10006EE670E086EA93E00E94BF026CE271E048
:100F200080E090E00E948A016EE670E089EA93E03A
:100F30000E94BF021092D80290920101809200019B
:100F40001092D7028AEA92E00E94400362E370E0C6
:100F500080E090E00E948A010E942602882309F422
:100F60003BCF0E94CD0338CF80910201813319F429
:100F700081E090E09ACF80910201823319F482E0FF
:100F800090E093CF8DE892E00E94400390CF6EE610
:100F900070E086EA93E0CCCF6EE670E089EA93E0F9
:100FA0000E94BF026CE271E080E090E00E948A0142
:100FB00064EB70E083EA93E0BBCF052E97FB1EF451
:100FC00000940E94F40757FD07D00E940F0807FC09
:100FD00003D04EF40C94F40750954095309521952C
:100FE0003F4F4F4F5F4F0895909580957095619555
:100FF0007F4F8F4F9F4F08950E943108A59F900DFE
:10100000B49F900DA49F800D911D11240895B7FFEA
:101010000C94FC070E94FC07821B930B0895A1E22D
:101020001A2EAA1BBB1BFD010DC0AA1FBB1FEE1F62
:10103000FF1FA217B307E407F50720F0A21BB30BAD
:10104000E40BF50B661F771F881F991F1A9469F729
:1010500060957095809590959B01AC01BD01CF0185
:101060000895A29FB001B39FC001A39F700D811D81
:101070001124911DB29F700D811D1124911D0895A1
:10108000991B79E004C0991F961708F0961B881FDA
:101090007A95C9F780950895EE0FFF1F0590F4919A
:1010A000E02D09940E9459086894B1110C94E80845
:1010B00008950E94CD0888F09F5798F0B92F99277E
:1010C000B751B0F0E1F0660F771F881F991F1AF033
:1010D000BA95C9F714C0B13091F00E94E708B1E0A9
:1010E00008950C94E708672F782F8827B85F39F0A8
:1010F000B93FCCF3869577956795B395D9F73EF4CC
:1011000090958095709561957F4F8F4F9F4F089573
:10111000E89409C097FB3EF4909580957095619591
:101120007F4F8F4F9F4F9923A9F0F92F96E9BB2747
:101130009395F695879577956795B795F111F8CFC3
:10114000FAF4BB0F11F460FF1BC06F5F7F4F8F4F2E
:101150009F4F16C0882311F096E911C0772321F024
:101160009EE8872F762F05C0662371F096E8862FBC
:1011700070E060E02AF09A95660F771F881FDAF713
:10118000880F9695879597F9089557FD9058440FC5
:10119000551F59F05F3F71F04795880F97FB991FD6
:1011A00061F09F3F79F08795089512161306140693
:1011B000551FF2CF4695F1DF08C016161706180620
:1011C000991FF1CF86957105610508940895E894FB
:1011D000BB2766277727CB0197F908950E9401095D
:1011E0000C9472090E94640938F00E946B0920F087
:1011F000952311F00C945B090C94610911240C9453
:10120000E8080E94C50870F3959FC1F3950F50E060
:10121000551F629FF001729FBB27F00DB11D639FA8
:10122000AA27F00DB11DAA1F649F6627B00DA11D4E
:10123000661F829F2227B00DA11D621F739FB00DF4
:10124000A11D621F839FA00D611D221F749F332764
:10125000A00D611D231F849F600D211D822F762FFD
:101260006A2F11249F5750409AF0F1F088234AF0DA
:10127000EE0FFF1FBB1F661F771F881F9150504046
:10128000A9F79E3F510580F00C945B090C94E80887
:101290005F3FE4F3983ED4F3869577956795B795CD
:1012A000F795E7959F5FC1F7FE2B880F911D9695E7
:1012B000879597F9089597F99F6780E870E060E057
:1012C00008959FEF80EC089500240A9416161706DF
:1012D00018060906089500240A9412161306140627
:1012E00005060895092E0394000C11F4882352F08A
:1012F000BB0F40F4BF2B11F460FF04C06F5F7F4F42
:0A1300008F4F9F4F0895F894FFCF20
:10130A00FFFFFF000000005202BC01E9019F021A20
:10131A0002F8010C020D0A003E3E20524543594391
:10132A004C41424C45206465746563746564003EB3
:10133A003E204F5247414E494320646574656374A9
:10134A006564003E3E2042332064657465637465BB
:10135A00640052656365697665642066726F6D2004
:10136A0052617370693A20003E3E2056616C69648E
:10137A0020636F6D6D616E64206465746563746566
:10138A00643A20003E3E2049676E6F7265642069A8
:10139A006E76616C696420636861726163746572F8
:1013AA00003D3D3D20534D41525420545241534833
:1013BA002042494E2053595354454D203D3D3D004E
:1013CA004D656E756E67677520646574656B7369C4
:1013DA00206F626A656B206461726920756C747231
:1013EA0061736F6E69632E2E2E00526173706920CD
:1013FA00616B616E206D656E676972696D20303D43
:10140A0052656379636C652C20313D4F7267616E5A
:10141A0069632C20323D423320736574656C6168C0
:10142A00206D656E6572696D6120687572756620DA
:10143A00274427003D3D3D3D3D3D3D3D3D3D3D3D34
:10144A003D3D3D3D3D3D3D3D3D3D3D3D3D3D3D3DC2
:10145A003D3D3D3D3D3D3D3D3D3D3D3D3D3D3D3DB2
:10146A003D3D00203E3E204F626A656374206465FC
:10147A007465637465642C2073656E64696E672095
:10148A0027442720746F205261737069003E3E2002
:10149A00496E76616C696420696E70757420667233
:1014AA006F6D20526173706921003E3E2053657250
:1014BA00766F2072657475726E656420746F206928
:1014CA006E697469616C20706F736974696F6E00FC
:00000001FF
