:100000000C9462000C948A000C948A000C948A0070
:100010000C948A000C948A000C948A000C948A0038
:100020000C948A000C948A000C948A000C94AD0302
:100030000C948A000C948A000C948A000C948A0018
:100040000C940B030C948A000C947B030C945503C2
:100050000C948A000C948A000C948A000C948A00F8
:100060000C948A000C948A000000000023002600F3
:10007000290000000000240027002A0000000000E2
:10008000250028002B0004040404040404040202D4
:100090000202020203030303030301020408102007
:1000A0004080010204081020010204081020000012
:1000B0000008000201000003040700000000000027
:1000C0000000AE0411241FBECFEFD8E0DEBFCDBFCD
:1000D00011E0A0E0B1E0ECECF1E102C005900D927E
:1000E000A236B107D9F722E0A2E6B1E001C01D9225
:1000F000A433B207E1F710E0C2E6D0E004C02197D4
:10010000FE010E94AD07C136D107C9F70E9425053F
:100110000C94E4080C94000090E0FC01E255FF4FC1
:100120002491FC01E656FF4F3491FC01EA57FF4F42
:10013000E491EE23C9F0222339F0233001F1A8F431
:10014000213019F1223029F1F0E0EE0FFF1FE458C1
:10015000FF4FA591B4918FB7F894EC91611126C02F
:1001600030953E233C938FBF08952730A9F0283067
:10017000C9F0243049F7809180008F7D03C08091C1
:1001800080008F7780938000DFCF84B58F7784BD28
:10019000DBCF84B58F7DFBCF8091B0008F778093CC
:1001A000B000D2CF8091B0008F7DF9CF3E2BDACF57
:1001B000CF93DF9390E0FC01E656FF4F24918A57DE
:1001C0009F4FFC0184918823D1F090E0880F991F04
:1001D000FC01EE58FF4FA591B491FC01E458FF4F8C
:1001E000C591D49161110EC09FB7F8948C91E22F04
:1001F000E0958E238C932881E223E8839FBFDF91D3
:10020000CF9108958FB7F894EC91E22BEC938FBFC8
:10021000F6CF3FB7F8948091680190916901A09161
:100220006A01B0916B0126B5A89B05C02F3F19F05C
:100230000196A11DB11D3FBFBA2FA92F982F882766
:10024000BC01CD01620F711D811D911D42E0660F41
:10025000771F881F991F4A95D1F70895AF92BF92D3
:10026000CF92DF92EF92FF920F931F93CF93DF9382
:100270006C017B018B01040F151FEB015E01AE18B1
:10028000BF08C017D10759F06991D601ED91FC91D3
:100290000190F081E02DC6010995892B79F7C50100
:1002A000DF91CF911F910F91FF90EF90DF90CF9052
:1002B000BF90AF900895FC01538D448D252F30E001
:1002C000842F90E0821B930B541710F0CF96089563
:1002D00001970895FC01918D828D981761F0A28D90
:1002E000AE0FBF2FB11D5D968C91928D9F5F9F7356
:1002F000928F90E008958FEF9FEF0895FC01918D0C
:10030000828D981731F0828DE80FF11D858D90E078
:1003100008958FEF9FEF0895FC01918D228D892F15
:1003200090E0805C9F4F821B91098F7399270895FD
:100330008CE691E00E948C0121E0892B09F420E0F9
:10034000822F089580E090E0892B29F00E94980187
:1003500081110C9400000895FC01A48DA80FB92F01
:10036000B11DA35ABF4F2C91848D90E001968F73DD
:100370009927848FA689B7892C93A089B1898C91FC
:10038000837080648C93938D848D981306C002884B
:10039000F389E02D80818F7D80830895EF92FF9215
:1003A0000F931F93CF93DF93EC0181E0888F9B8D98
:1003B0008C8D98131AC0E889F989808185FF15C052
:1003C0009FB7F894EE89FF896083E889F989808175
:1003D0008370806480839FBF81E090E0DF91CF9144
:1003E0001F910F91FF90EF900895F62E0B8D10E066
:1003F0000F5F1F4F0F731127E02E8C8D8E110CC0D5
:100400000FB607FCFACFE889F989808185FFF5CF1F
:10041000CE010E94AC01F1CFEB8DEC0FFD2FF11D51
:10042000E35AFF4FF0829FB7F8940B8FEA89FB895C
:1004300080818062CFCFCF93DF93EC01888D8823BA
:10044000B9F0AA89BB89E889F9898C9185FD03C037
:10045000808186FD0DC00FB607FCF7CF8C9185FF1C
:10046000F2CF808185FFEDCFCE010E94AC01E9CFB4
:10047000DF91CF9108958F929F92AF92BF92FF929A
:100480000F931F93CF93DF93FC01F0808BE08F15C8
:1004900008F44AC0828108E512E0081B110987FDB3
:1004A0001395000F111F000F111F8181C8E8D0E0C4
:1004B000C81BD10987FDD395CC0FDD1FCC0FDD1FE5
:1004C0004E010D2E000CAA08BB089801012E000C4D
:1004D000440B550B281939094A095B09DB010E94B5
:1004E000680724EB30E040E050E00E943E07820EB7
:1004F000931EA41EB51E8C169D062CF0E8018016D6
:1005000091060CF4E4012297CC0FDD1F2FB7F8946D
:100510008F2D90E0FC01EE0FFF1FE80FF91FE75F42
:10052000FD4FD283C1832FBFDF91CF911F910F91D8
:10053000FF90BF90AF909F908F900895892B79F492
:100540001092800082E080938100109285001092CA
:100550008400B19A80916F00826080936F0008954B
:10056000FC0101900020E9F73197AF01481B590BBE
:10057000BC018CE691E00C942E010F931F93CF9356
:10058000DF93182FEB0160E00E948C0083E090E085
:100590000197F1F761E0812F0E948C0083E290E0E7
:1005A0000197F1F760E0812F0E948C00FE01E65672
:1005B000FF4F6491FE01EA57FF4FE491F0E0EE0F28
:1005C000FF1FE859FF4F8591949100E315E720E064
:1005D00030E0462F0E94690461157105810591057F
:1005E00029F06F5F7F4F8F4F9F4F9F700E94EB07E7
:1005F00026E933E44BE05DE30E944F0820E030E061
:1006000040E05FE30E944F080E94B307DF91CF9163
:100610001F910F9108951F920F920FB60F92112400
:100620002F933F938F939F93AF93BF9380916401D8
:1006300090916501A0916601B091670130916301CD
:1006400023E0230F2D3758F50196A11DB11D2093EE
:1006500063018093640190936501A0936601B09358
:1006600067018091680190916901A0916A01B09140
:100670006B010196A11DB11D8093680190936901E2
:10068000A0936A01B0936B01BF91AF919F918F913D
:100690003F912F910F900FBE0F901F90189526E855
:1006A000230F0296A11DB11DD2CF1F920F920FB63C
:1006B0000F9211242F933F934F935F936F937F93E8
:1006C0008F939F93AF93BF93EF93FF938CE691E04B
:1006D0000E94AC01FF91EF91BF91AF919F918F91DB
:1006E0007F916F915F914F913F912F910F900FBE2E
:1006F0000F901F9018951F920F920FB60F92112412
:100700002F938F939F93EF93FF93E0917C01F09150
:100710007D018081E0918201F091830182FD1BC007
:100720009081809185018F5F8F7320918601821760
:1007300041F0E0918501F0E0E459FE4F958F809300
:100740008501FF91EF919F918F912F910F900FBE97
:100750000F901F9018958081F4CF1F920F920FB6C3
:100760000F9211242F933F934F935F936F937F9337
:100770008F939F93AF93BF93CF93DF93EF93FF93A9
:1007800080916201C0912D02D0E087FF24C01092B9
:10079000850010928400809162018F5F80936201D6
:1007A00080916201082E000C990B8C179D0724F490
:1007B000809162018C30C4F1809184009091850019
:1007C000049680349C4908F47AC08091840090910A
:1007D0008500049676C080916201082E000C990B6A
:1007E0008C179D07C4F6E09162018E2FEE0F990BD6
:1007F000FC01EE0FFF1FE80FF91FE75FFD4F80813F
:1008000086FFC9CFE09162018E2FEE0F990BFC019C
:10081000EE0FFF1FE80FF91FE75FFD4F808160E0DB
:100820008F730E948C00B7CF209184003091850097
:10083000E09162018E2FEE0F990BFC01EE0FFF1F6E
:10084000E80FF91FE75FFD4F81819281820F931FAF
:100850009093890080938800E09162018E2FEE0FC3
:10086000990BFC01EE0FFF1FE80FF91FE75FFD4F2B
:10087000808186FF11C0E09162018E2FEE0F990BEF
:10088000FC01EE0FFF1FE80FF91FE75FFD4F8081AE
:1008900061E08F730E948C00FF91EF91DF91CF9107
:1008A000BF91AF919F918F917F916F915F914F9188
:1008B0003F912F910F900FBE0F901F90189580E4DD
:1008C0009CE990938900809388008FEF8093620168
:1008D000E3CFCF92DF92EF92FF920F931F93E82F17
:1008E000F92F05C0015011092109310961F19081E9
:1008F00096239417B9F305C0015011092109310954
:1009000011F1908196239413F7CFC12CD12CE12CB7
:10091000F12C0AC08FEFC81AD80AE80AF80A0C1599
:100920001D052E053F0579F080818623841791F3FC
:100930006C2D7D2D8E2D9F2D1F910F91FF90EF908F
:10094000DF90CF90089560E070E080E090E01F912C
:100950000F91FF90EF90DF90CF90089510926F016C
:1009600010926E0188EE93E0A0E0B0E080937001F9
:1009700090937101A0937201B093730184E091E0B0
:1009800090936D0180936C0185EC90E090937901D8
:100990008093780184EC90E090937B0180937A01BE
:1009A00080EC90E090937D0180937C0181EC90E05D
:1009B00090937F0180937E0182EC90E0909381017F
:1009C0008093800186EC90E0909383018093820174
:1009D0001092850110928601109287011092880171
:1009E00080912D028C3048F591E0980F90932D0264
:1009F0008093310290E0FC01EE0FFF1FE80FF91F1A
:100A0000E75FFD4F88EB9BE09283818380912D020D
:100A10008C30B8F491E0980F90932D0280932E02C1
:100A200090E0FC01EE0FFF1FE80FF91FE75FFD4F9D
:100A300088EB9BE09283818308958FEF809331024E
:100A4000E5CF8FEF80932E020895789484B582606D
:100A500084BD84B5816084BD85B5826085BD85B562
:100A6000816085BD80916E00816080936E001092E0
:100A7000810080918100826080938100809181005B
:100A800081608093810080918000816080938000EC
:100A90008091B10084608093B1008091B00081604A
:100AA0008093B00080917A00846080937A00809176
:100AB0007A00826080937A0080917A0081608093CE
:100AC0007A0080917A00806880937A001092C10049
:100AD000E0917C01F0917D0182E08083E0917801DA
:100AE000F09179011082E0917A01F0917B018FEC15
:100AF000808310928401E0918001F091810186E071
:100B00008083E0917E01F0917F018081806180830C
:100B1000E0917E01F0917F01808188608083E09187
:100B20007E01F0917F01808180688083E0917E0169
:100B3000F0917F0180818F7D808361E082E00E945F
:100B4000D80060E083E00E94D80061E084E00E9469
:100B5000D80060E085E00E94D80061E086E00E9455
:100B6000D80060E087E00E94D80061E089E00E9440
:100B7000D80060E08AE00E94D80061E088E00E942E
:100B8000D80060E088E00E948C00809131028C30B7
:100B900008F043C061E08BE00E94D80080913102F0
:100BA000282F30E0F901EE0FFF1FE20FF31FE75F80
:100BB000FD4F9081907C9B60908310923202109246
:100BC00033022CE0622F0E94A10790E0829FB001C7
:100BD000112430E020E0AB01420F531FFA01EE0F69
:100BE000FF1FE40FF51FE75FFD4F408146FD07C083
:100BF0002F5F3F4F2C30310571F70E949E02E0912C
:100C000031028E2F90E0FC01EE0FFF1FE80FF91F5D
:100C1000E75FFD4F80818064808380912E028C305D
:100C200008F043C061E08CE00E94D80080912E0261
:100C3000282F30E0F901EE0FFF1FE20FF31FE75FEF
:100C4000FD4F9081907C9C60908310922F021092B7
:100C500030022CE0622F0E94A10790E0829FB00139
:100C6000112430E020E0AB01420F531FFA01EE0FD8
:100C7000FF1FE40FF51FE75FFD4F408146FD07C0F2
:100C80002F5F3F4F2C30310571F70E949E02E0919B
:100C90002E028E2F90E0FC01EE0FFF1FE80FF91FD0
:100CA000E75FFD4F80818064808370E060E081E3D6
:100CB00092E00E943B0270E060E08EE292E00E94CF
:100CC0003B02C0E0D0E06AE070E089E090E00E9482
:100CD000BD026E317105810591050CF0C2C061E065
:100CE00088E00E948C0082E191E00E94B00284E1E1
:100CF00091E00E94B0028FB7F894C0906401D09048
:100D00006501E0906601F09067018FBF2FB7F894FE
:100D10008091640190916501A0916601B091670195
:100D20002FBF8C199D09AE09BF0988389341A105D1
:100D3000B105F8F48CE691E00E948C0118161906B2
:100D40002CF78CE691E00E946A01009709F076C0CA
:100D50008FB7F894409164015091650160916601EC
:100D6000709167018FBF6AE570E081E392E00E94B5
:100D70003B0263E070E082E090E00E94BD022B0144
:100D80003C0165E070E084E090E00E94BD024B0110
:100D90005C0167E070E086E090E00E94BD026B01BC
:100DA0007C018AE0481651046104710424F483E351
:100DB00091E00E94B0022AE082169104A104B104DD
:100DC00024F481E491E00E94B0028AE0C816D104C4
:100DD000E104F10424F482E591E00E94B0020E9453
:100DE00009014B015C0184E6C82ED12CE12CF12CC9
:100DF0000E940901681979098A099B09683E7340B4
:100E000081059105A8F321E0C21AD108E108F10893
:100E100088EE880E83E0981EA11CB11CC114D10479
:100E2000E104F10429F7209709F44DCF0E949801BD
:100E3000882309F448CF0E94000045CF029709F0AB
:100E400098CF8FB7F89440916401509165016091FB
:100E50006601709167018FBF6AE570E08EE292E0F3
:100E600086CF60E088E00E948C0087E191E00E94DC
:100E7000B00284E191E00E94B0027BCF052E97FB87
:100E80001EF400940E94550757FD07D00E9470077A
:100E900007FC03D04EF40C945507509540953095BF
:100EA00021953F4F4F4F5F4F0895909580957095D6
:100EB00061957F4F8F4F9F4F08950E949207A59F86
:100EC000900DB49F900DA49F800D911D1124089545
:100ED000B7FF0C945D070E945D07821B930B08957A
:100EE000A1E21A2EAA1BBB1BFD010DC0AA1FBB1F2E
:100EF000EE1FFF1FA217B307E407F50720F0A21BA0
:100F0000B30BE40BF50B661F771F881F991F1A940C
:100F100069F760957095809590959B01AC01BD0136
:100F2000CF010895A29FB001B39FC001A39F700D90
:100F3000811D1124911DB29F700D811D1124911DE1
:100F40000895991B79E004C0991F961708F0961B25
:100F5000881F7A95C9F780950895EE0FFF1F0590B9
:100F6000F491E02D09940E94BA076894B1110C9491
:100F7000490808950E942E0888F09F5798F0B92FCD
:100F80009927B751B0F0E1F0660F771F881F991FBE
:100F90001AF0BA95C9F714C0B13091F00E94480810
:100FA000B1E008950C944808672F782F8827B85F20
:100FB00039F0B93FCCF3869577956795B395D9F716
:100FC0003EF490958095709561957F4F8F4F9F4F20
:100FD0000895E89409C097FB3EF49095809570952C
:100FE00061957F4F8F4F9F4F9923A9F0F92F96E975
:100FF000BB279395F695879577956795B795F111EA
:10100000F8CFFAF4BB0F11F460FF1BC06F5F7F4F86
:101010008F4F9F4F16C0882311F096E911C0772398
:1010200021F09EE8872F762F05C0662371F096E8A1
:10103000862F70E060E02AF09A95660F771F881F70
:10104000DAF7880F9695879597F9089557FD905888
:10105000440F551F59F05F3F71F04795880F97FB7C
:10106000991F61F09F3F79F0879508951216130636
:101070001406551FF2CF4695F1DF08C01616170665
:101080001806991FF1CF869571056105089408959A
:10109000E894BB2766277727CB0197F908950E942C
:1010A00062080C94D3080E94C50838F00E94CC084E
:1010B00020F0952311F00C94BC080C94C208112464
:1010C0000C9449080E94260870F3959FC1F3950F70
:1010D00050E0551F629FF001729FBB27F00DB11DBC
:1010E000639FAA27F00DB11DAA1F649F6627B00D4C
:1010F000A11D661F829F2227B00DA11D621F739F35
:10110000B00DA11D621F839FA00D611D221F749F42
:101110003327A00D611D231F849F600D211D822F89
:10112000762F6A2F11249F5750409AF0F1F08823B0
:101130004AF0EE0FFF1FBB1F661F771F881F9150DD
:101140005040A9F79E3F510580F00C94BC080C94C8
:1011500049085F3FE4F3983ED4F386957795679509
:10116000B795F795E7959F5FC1F7FE2B880F911D07
:101170009695879597F9089597F99F6780E870E0AD
:1011800060E008959FEF80EC089500240A941616FD
:10119000170618060906089500240A941216130665
:1011A000140605060895092E0394000C11F48823F3
:1011B00052F0BB0F40F4BF2B11F460FF04C06F5F0F
:0C11C0007F4F8F4F9F4F0895F894FFCF92
:1011CC0000000000CE012E015B011B028C016A01A4
:1011DC007E0144000D0A00207C20537461747573E9
:1011EC003A20546964616B204164612042617261F0
:1011FC006E6700426F7820313A2050454E5548209A
:10120C0000207C20426F7820323A2050454E5548C1
:10121C002000207C20426F7820333A2050454E55D8
:02122C00480078
:00000001FF
