:100000000C945D000C9485000C9485000C94850084
:100010000C9485000C9485000C9485000C9485004C
:100020000C9485000C9485000C9485000C9450046D
:100030000C9485000C9485000C9485000C9485002C
:100040000C94AE030C9485000C941E040C94F803DD
:100050000C9485000C9485000C9485000C9485000C
:100060000C9485000C94850000000008000201003B
:100070000003040700000000000000000000000072
:10008000250028002B0000000000240027002A0083
:10009000040404040404040402020202020203032E
:1000A0000303030301020408102040800102040836
:1000B0001020010204081020270511241FBECFEFD5
:1000C000D8E0DEBFCDBF12E0A0E0B1E0EEE3FEE09D
:1000D00002C005900D92AA32B107D9F723E0AAE237
:1000E000B2E001C01D92A430B207E1F710E0CDE507
:1000F000D0E004C02197FE010E941707CC35D1073C
:10010000C9F70E945F050C941D070C940000CF9363
:10011000DF93DC018C918C3008F06DC0CB01FB01CA
:10012000EC55FF4F249180579F4FFC018491882309
:1001300099F090E0880F991FFC01EA57FF4FC59195
:10014000D491FC01E458FF4F859194918FB7F894B6
:10015000E881E22BE8838FBF8C91282F30E0F901F2
:10016000EE0FFF1FE20FF31FE65CFD4F962F9F730C
:100170006081607C692B608311961C9211971296A6
:100180001C9212972CE0622F0E940B07829FB001F5
:10019000112430E020E0AB01420F531FFA01EE0FB3
:1001A000FF1FE40FF51FE65CFD4F908196FD16C022
:1001B0002F5F3F4F2C30310571F781110FC0109226
:1001C000800082E08093810010928500109284006C
:1001D000B19A80916F00826080936F00EC918E2FB6
:1001E00090E0FC01EE0FFF1FE80FF91FE65CFD4FEA
:1001F0008081806480838C91DF91CF91089590E01D
:10020000FC01E859FF4F2491FC01EC55FF4F34915C
:10021000FC01E057FF4FE491EE23C9F0222339F0AF
:10022000233001F1A8F4213019F1223029F1F0E056
:10023000EE0FFF1FE458FF4FA591B4918FB7F894CC
:10024000EC91611126C030953E233C938FBF0895F9
:100250002730A9F02830C9F0243049F78091800078
:100260008F7D03C0809180008F7780938000DFCFE7
:1002700084B58F7784BDDBCF84B58F7DFBCF809134
:10028000B0008F778093B000D2CF8091B0008F7D87
:10029000F9CF3E2BDACF3FB7F89480913602909198
:1002A0003702A0913802B091390226B5A89B05C04B
:1002B0002F3F19F00196A11DB11D3FBFBA2FA92FE5
:1002C000982F8827BC01CD01620F711D811D911DE2
:1002D00042E0660F771F881F991F4A95D1F708954E
:1002E0008F929F92AF92BF92CF92DF92EF92FF9246
:1002F0004B015C010E944B016B017C010E944B0190
:100300006C197D098E099F09683E7340810591052E
:10031000A8F321E0821A9108A108B10888EEC80E5E
:1003200083E0D81EE11CF11C81149104A104B104E6
:1003300029F7FF90EF90DF90CF90BF90AF909F9004
:100340008F900895AF92BF92CF92DF92EF92FF927B
:100350000F931F93CF93DF936C017B018B01040FED
:10036000151FEB015E01AE18BF08C017D10759F089
:100370006991D601ED91FC910190F081E02DC601CB
:100380000995892B79F7C501DF91CF911F910F91C5
:10039000FF90EF90DF90CF90BF90AF900895FC0159
:1003A000538D448D252F30E0842F90E0821B930BDA
:1003B000541710F0CF96089501970895FC01918D80
:1003C000828D981761F0A28DAE0FBF2FB11D5D9683
:1003D0008C91928D9F5F9F73928F90E008958FEF25
:1003E0009FEF0895FC01918D828D981731F0828DD9
:1003F000E80FF11D858D90E008958FEF9FEF089530
:10040000FC01918D228D892F90E0805C9F4F821B93
:1004100091098F73992708958EE592E00E9400025A
:1004200021E0892B09F420E0822F089580E090E0FC
:10043000892B29F00E940C0281110C940000089570
:10044000FC01A48DA80FB92FB11DA35ABF4F2C9149
:10045000848D90E001968F739927848FA689B78940
:100460002C93A089B1898C91837080648C93938D37
:10047000848D981306C00288F389E02D80818F7DDA
:1004800080830895EF92FF920F931F93CF93DF9392
:10049000EC0181E0888F9B8D8C8D98131AC0E889C0
:1004A000F989808185FF15C09FB7F894EE89FF898F
:1004B0006083E889F98980818370806480839FBF2D
:1004C00081E090E0DF91CF911F910F91FF90EF902D
:1004D0000895F62E0B8D10E00F5F1F4F0F7311273D
:1004E000E02E8C8D8E110CC00FB607FCFACFE88978
:1004F000F989808185FFF5CFCE010E942002F1CFDE
:10050000EB8DEC0FFD2FF11DE35AFF4FF0829FB7EB
:10051000F8940B8FEA89FB8980818062CFCFCF93DB
:10052000DF93EC01888D8823B9F0AA89BB89E8891B
:10053000F9898C9185FD03C0808186FD0DC00FB6C1
:1005400007FCF7CF8C9185FFF2CF808185FFEDCF3F
:10055000CE010E942002E9CFDF91CF9108958F92C2
:100560009F92AF92BF92FF920F931F93CF93DF930F
:10057000FC01F0808BE08F1508F44AC0828108E509
:1005800012E0081B110987FD1395000F111F000FC2
:10059000111F8181C8E8D0E0C81BD10987FDD39520
:1005A000CC0FDD1FCC0FDD1F4E010D2E000CAA0855
:1005B000BB089801012E000C440B550B2819390972
:1005C0004A095B09DB010E94D20624EB30E040E0DF
:1005D00050E00E94A806820E931EA41EB51E8C1623
:1005E0009D062CF0E801801691060CF4E401229798
:1005F000CC0FDD1F2FB7F8948F2D90E0FC01EE0F8C
:10060000FF1FE80FF91FE65CFD4FD283C1832FBFA8
:10061000DF91CF911F910F91FF90BF90AF909F906E
:100620008F900895CF93DF93FC0101900020E9F7AC
:100630003197AF01481B590BBC018EE592E00E9437
:10064000A201EC0142E050E064E171E08EE592E04D
:100650000E94A2018C0F9D1FDF91CF910895CF932F
:10066000DF932FB7F894409132025091330260919A
:100670003402709135022FBF40932C0250932D020B
:1006800060932E0270932F0221E02093300290930A
:1006900001018093000181309105D1F00297E9F0CA
:1006A00087E191E00E9412036EE170E081E093E047
:1006B0000E94AF026CE271E080E090E00E94700165
:1006C00064E170E08EEF92E0DF91CF910C94AF0285
:1006D0008EE291E00E941203F3CF82E491E00E9447
:1006E000120364E670E08BEF92E00E94AF0264EFC9
:1006F00071E080E090E00E94700164E170E08EEFB4
:1007000092E00E94AF0264EF71E080E090E00E940E
:10071000700163E770E08EEF92E00E94AF0264EF39
:1007200071E080E090E00E947001C4E6D0E0BE017C
:100730008BEF92E00E94AF026FE070E080E090E00B
:100740000E9470012196C739D10589F764EF71E0E5
:1007500080E090E0DF91CF910C9470011F920F9296
:100760000FB60F9211242F933F938F939F93AF93C4
:10077000BF938091320290913302A0913402B091E4
:1007800035023091310223E0230F2D3758F50196C1
:10079000A11DB11D20933102809332029093330248
:1007A000A0933402B09335028091360290913702C3
:1007B000A0913802B09139020196A11DB11D80931C
:1007C000360290933702A0933802B0933902BF915A
:1007D000AF919F918F913F912F910F900FBE0F90EE
:1007E0001F90189526E8230F0296A11DB11DD2CFA8
:1007F0001F920F920FB60F9211242F933F934F9396
:100800005F936F937F938F939F93AF93BF93EF9378
:10081000FF938EE592E00E942002FF91EF91BF913D
:10082000AF919F918F917F916F915F914F913F9188
:100830002F910F900FBE0F901F9018951F920F923F
:100840000FB60F9211242F938F939F93EF93FF93E3
:10085000E0916E02F0916F028081E0917402F0915C
:10086000750282FD1BC09081809177028F5F8F732C
:1008700020917802821741F0E0917702F0E0E25A8D
:10088000FD4F958F80937702FF91EF919F918F910C
:100890002F910F900FBE0F901F9018958081F4CF6D
:1008A0001F920F920FB60F9211242F933F934F93E5
:1008B0005F936F937F938F939F93AF93BF93CF93E8
:1008C000DF93EF93FF9380912A02C0912B02D0E037
:1008D00087FF24C0109285001092840080912A0224
:1008E0008F5F80932A0280912A02082E000C990BB8
:1008F0008C179D0724F480912A028C30C4F18091DA
:10090000840090918500049680349C4908F47AC054
:100910008091840090918500049676C080912A028F
:10092000082E000C990B8C179D07C4F6E0912A0243
:100930008E2FEE0F990BFC01EE0FFF1FE80FF91F32
:10094000E65CFD4F808186FFC9CFE0912A028E2FA1
:10095000EE0F990BFC01EE0FFF1FE80FF91FE65C8D
:10096000FD4F808160E08F730E94FF00B7CF209120
:10097000840030918500E0912A028E2FEE0F990BB2
:10098000FC01EE0FFF1FE80FF91FE65CFD4F8181B0
:100990009281820F931F9093890080938800E09149
:1009A0002A028E2FEE0F990BFC01EE0FFF1FE80FAE
:1009B000F91FE65CFD4F808186FF11C0E0912A029D
:1009C0008E2FEE0F990BFC01EE0FFF1FE80FF91FA2
:1009D000E65CFD4F808161E08F730E94FF00FF9114
:1009E000EF91DF91CF91BF91AF919F918F917F91C7
:1009F0006F915F914F913F912F910F900FBE0F908C
:100A00001F90189580E49CE990938900809388005A
:100A10008FEF80932A02E3CFFC0190912B029C3050
:100A200098F481E0890F80932B029083892F90E0C6
:100A3000FC01EE0FFF1FE80FF91FE65CFD4F88EB8E
:100A40009BE09283818308958FEF80830895EEE584
:100A5000F2E01382128288EE93E0A0E0B0E084839B
:100A60009583A683B78386E091E09183808385ECAC
:100A700090E09587848784EC90E09787868780EC68
:100A800090E0918B808B81EC90E0938B828B82EC59
:100A900090E0958B848B86EC90E0978B868B118E03
:100AA000128E138E148E81E093E00E940C058EEF5F
:100AB00092E00E940C058BEF92E00C940C05789468
:100AC00084B5826084BD84B5816084BD85B5826053
:100AD00085BD85B5816085BD80916E008160809304
:100AE0006E0010928100809181008260809381006D
:100AF000809181008160809381008091800081607D
:100B0000809380008091B10084608093B1008091D7
:100B1000B00081608093B00080917A0084608093FF
:100B20007A0080917A00826080937A0080917A00C6
:100B3000816080937A0080917A00806880937A0047
:100B40001092C100E0916E02F0916F0282E080830A
:100B5000E0916A02F0916B021082E0916C02F091D8
:100B60006D0280E1808310927602E0917202F09132
:100B7000730286E08083E0917002F09171028081BF
:100B800080618083E0917002F091710280818860C1
:100B90008083E0917002F09171028081806880838F
:100BA000E0917002F091710280818F7D808366E018
:100BB00070E081E093E00E94870069E070E08EEFD2
:100BC00092E00E9487006AE070E08BEF92E00E9462
:100BD000870068E770E081E093E00E94AF0263E77E
:100BE00070E08EEF92E00E94AF0264EB70E08BEF5A
:100BF00092E00E94AF0264EF71E080E090E00E941A
:100C0000700181E591E00E94120388E791E00E9463
:100C1000120387E891E00E94120383E991E00E94A9
:100C200012038FE991E00E94120380EB91E00E9491
:100C30001203C0E0D0E00FEF1FEF8EE592E00E94BC
:100C40000002181619065CF48EE592E00E94DE019F
:100C5000803309F058C090E080E00E942F0380911B
:100C60003002882309F444C02FB7F89480913202EF
:100C700090913302A0913402B09135022FBF409180
:100C80002C0250912D0260912E0270912F02841B34
:100C9000950BA60BB70B883B9B40A105B10540F116
:100CA000809100019091010181309105D9F182304C
:100CB0009105E9F1892B91F463E770E08EEF92E002
:100CC0000E94AF026CE271E080E090E00E9470014F
:100CD00068E770E081E093E00E94AF02109230027A
:100CE000109301010093000183E092E00E9412033F
:100CF000209709F4A2CF0E940C02882309F49DCF0B
:100D00000E9400009ACF813319F481E090E0A5CFD2
:100D1000823319F482E090E0A0CF88ED91E00E9448
:100D200012039DCF63E770E08EEF92E0D5CF68E7C6
:100D300070E081E093E00E94AF026CE271E080E03D
:100D400090E00E94700164EB70E08BEF92E0C4CF02
:100D5000052E97FB1EF400940E94BF0657FD07D096
:100D60000E94DA0607FC03D04EF40C94BF0650959F
:100D70004095309521953F4F4F4F5F4F0895909587
:100D80008095709561957F4F8F4F9F4F08950E947A
:100D9000FC06A59F900DB49F900DA49F800D911D02
:100DA00011240895B7FF0C94C7060E94C706821B42
:100DB000930B0895A1E21A2EAA1BBB1BFD010DC0C7
:100DC000AA1FBB1FEE1FFF1FA217B307E407F507FB
:100DD00020F0A21BB30BE40BF50B661F771F881FD7
:100DE000991F1A9469F760957095809590959B016D
:100DF000AC01BD01CF010895A29FB001B39FC00116
:100E0000A39F700D811D1124911DB29F700D811D36
:100E10001124911D0895991B79E004C0991F96171C
:100E200008F0961B881F7A95C9F780950895EE0FF4
:0E0E3000FF1F0590F491E02D0994F894FFCF78
:100E3E00FFFF000000004202A201CF018F0200025C
:100E4E00DE01F2010D0A003E3E2052454359434C4D
:100E5E0041424C45206465746563746564003E3E92
:100E6E00204F5247414E4943206465746563746553
:100E7E0064003E3E2042332064657465637465648D
:100E8E00003D3D3D20534552564F2054455354206E
:100E9E004D4F444520284D414E55414C20494E5012
:100EAE00555429203D3D3D00496E70757420636F89
:100EBE006D6D616E643A0030203D2052656379633A
:100ECE006C650031203D204F7267616E69630032A0
:100EDE00203D2042332028426174746572792900C6
:100EEE003D3D3D3D3D3D3D3D3D3D3D3D3D3D3D3D24
:100EFE003D3D3D3D3D3D3D3D3D3D3D3D3D3D3D3D14
:100F0E003D3D3D3D3D3D3D003E3E20496E76616C92
:100F1E00696420696E7075742120506C656173650B
:100F2E0020656E74657220302C20312C206F72205B
:100F3E00322E003E3E20536572766F2072657475B8
:100F4E00726E656420746F20696E697469616C20BD
:0A0F5E00706F736974696F6E000014
:00000001FF
