:100000000C9462000C948A000C948A000C948A0070
:100010000C948A000C948A000C948A000C948A0038
:100020000C948A000C948A000C948A000C948A0028
:100030000C948A000C948A000C948A000C948A0018
:100040000C9496020C948A000C9406030C94E00223
:100050000C948A000C948A000C948A000C948A00F8
:100060000C948A000C948A000000000023002600F3
:10007000290000000000240027002A0000000000E2
:10008000250028002B0004040404040404040202D4
:100090000202020203030303030301020408102007
:1000A0004080010204081020010204081020000012
:1000B0000008000201000003040700000000000027
:1000C0000000A30411241FBECFEFD8E0DEBFCDBFD8
:1000D00011E0A0E0B1E0E2E1FCE002C005900D9289
:1000E000A837B107D9F722E0A8E7B1E001C01D9217
:1000F000AE31B207E1F710E0C2E6D0E004C02197CC
:10010000FE010E94D004C136D107C9F70E947D03C9
:100110000C9407060C94000090E0FC01E255FF4FA0
:100120002491FC01E656FF4F3491FC01EA57FF4F42
:10013000E491EE23C9F0222339F0233001F1A8F431
:10014000213019F1223029F1F0E0EE0FFF1FE458C1
:10015000FF4FA591B4918FB7F894EC91611126C02F
:1001600030953E233C938FBF08952730A9F0283067
:10017000C9F0243049F7809180008F7D03C08091C1
:1001800080008F7780938000DFCF84B58F7784BD28
:10019000DBCF84B58F7DFBCF8091B0008F778093CC
:1001A000B000D2CF8091B0008F7DF9CF3E2BDACF57
:1001B000CF93DF9390E0FC01E656FF4F24918A57DE
:1001C0009F4FFC0184918823D1F090E0880F991F04
:1001D000FC01EE58FF4FA591B491FC01E458FF4F8C
:1001E000C591D49161110EC09FB7F8948C91E22F04
:1001F000E0958E238C932881E223E8839FBFDF91D3
:10020000CF9108958FB7F894EC91E22BEC938FBFC8
:10021000F6CF3FB7F89480917D0190917E01A09137
:100220007F01B091800126B5A89B05C02F3F19F032
:100230000196A11DB11D3FBFBA2FA92F982F882766
:10024000BC01CD01620F711D811D911D42E0660F41
:10025000771F881F991F4A95D1F70895AF92BF92D3
:10026000CF92DF92EF92FF920F931F93CF93DF9382
:100270006C017B018B01040F151FEB015E01AE18B1
:10028000BF08C017D10759F06991D601ED91FC91D3
:100290000190F081E02DC6010995892B79F7C50100
:1002A000DF91CF911F910F91FF90EF90DF90CF9052
:1002B000BF90AF900895FC01538D448D252F30E001
:1002C000842F90E0821B930B541710F0CF96089563
:1002D00001970895FC01918D828D981761F0A28D90
:1002E000AE0FBF2FB11D5D968C91928D9F5F9F7356
:1002F000928F90E008958FEF9FEF0895FC01918D0C
:10030000828D981731F0828DE80FF11D858D90E078
:1003100008958FEF9FEF0895FC01918D228D892F15
:1003200090E0805C9F4F821B91098F7399270895FD
:1003300081E891E00E948C0121E0892B09F420E002
:10034000822F089580E090E0892B29F00E94980187
:1003500081110C9400000895FC01A48DA80FB92F01
:10036000B11DA35ABF4F2C91848D90E001968F73DD
:100370009927848FA689B7892C93A089B1898C91FC
:10038000837080648C93938D848D981306C002884B
:10039000F389E02D80818F7D80830895EF92FF9215
:1003A0000F931F93CF93DF93EC0181E0888F9B8D98
:1003B0008C8D98131AC0E889F989808185FF15C052
:1003C0009FB7F894EE89FF896083E889F989808175
:1003D0008370806480839FBF81E090E0DF91CF9144
:1003E0001F910F91FF90EF900895F62E0B8D10E066
:1003F0000F5F1F4F0F731127E02E8C8D8E110CC0D5
:100400000FB607FCFACFE889F989808185FFF5CF1F
:10041000CE010E94AC01F1CFEB8DEC0FFD2FF11D51
:10042000E35AFF4FF0829FB7F8940B8FEA89FB895C
:1004300080818062CFCFCF93DF93EC01888D8823BA
:10044000B9F0AA89BB89E889F9898C9185FD03C037
:10045000808186FD0DC00FB607FCF7CF8C9185FF1C
:10046000F2CF808185FFEDCFCE010E94AC01E9CFB4
:10047000DF91CF910895FC0101900020E9F73197B9
:10048000AF01481B590BBC0181E891E00C942E018F
:100490000F931F93CF93DF93182FEB0160E00E941F
:1004A0008C0083E090E00197F1F761E0812F0E94DA
:1004B0008C0083E290E00197F1F760E0812F0E94C9
:1004C0008C00FE01E656FF4F6491FE01EA57FF4F94
:1004D000E491F0E0EE0FFF1FE859FF4F85919491F2
:1004E00000E315E720E030E0462F0E943803611555
:1004F00071058105910529F06F5F7F4F8F4F9F4FE9
:100500009F700E940E0526E933E44BE05DE30E94F4
:10051000720520E030E040E05FE30E9472050E9437
:10052000D604DF91CF911F910F9108951F920F92E2
:100530000FB60F9211242F933F938F939F93AF93F6
:10054000BF938091790190917A01A0917B01B09144
:100550007C013091780123E0230F2D3758F5019667
:10056000A11DB11D209378018093790190937A01A8
:10057000A0937B01B0937C0180917D0190917E01DD
:10058000A0917F01B09180010196A11DB11D8093C2
:100590007D0190937E01A0937F01B0938001BF9174
:1005A000AF919F918F913F912F910F900FBE0F9020
:1005B0001F90189526E8230F0296A11DB11DD2CFDA
:1005C0001F920F920FB60F9211242F933F934F93C8
:1005D0005F936F937F938F939F93AF93BF93EF93AB
:1005E000FF9381E891E00E94AC01FF91EF91BF91F0
:1005F000AF919F918F917F916F915F914F913F91BB
:100600002F910F900FBE0F901F9018951F920F9271
:100610000FB60F9211242F938F939F93EF93FF9315
:10062000E0919101F09192018081E0919701F09128
:10063000980182FD1BC0908180919A018F5F8F731A
:1006400020919B01821741F0E0919A01F0E0EF5771
:10065000FE4F958F80939A01FF91EF919F918F911B
:100660002F910F900FBE0F901F9018958081F4CF9F
:10067000CF92DF92EF92FF920F931F93E82FF92F03
:1006800005C0015011092109310961F190819623BA
:100690009417B9F305C0015011092109310911F16D
:1006A000908196239413F7CFC12CD12CE12CF12CFF
:1006B0000AC08FEFC81AD80AE80AF80A0C151D05F7
:1006C0002E053F0579F080818623841791F36C2DE8
:1006D0007D2D8E2D9F2D1F910F91FF90EF90DF901C
:1006E000CF90089560E070E080E090E01F910F915E
:1006F000FF90EF90DF90CF900895789484B582605A
:1007000084BD84B5816084BD85B5826085BD85B5B5
:10071000816085BD80916E00816080936E00109233
:1007200081008091810082608093810080918100AE
:10073000816080938100809180008160809380003F
:100740008091B10084608093B1008091B00081609D
:100750008093B00080917A00846080937A008091C9
:100760007A00826080937A0080917A008160809321
:100770007A0080917A00806880937A001092C1009C
:10078000E0919101F091920182E08083E0918D01EE
:10079000F0918E011082E0918F01F09190018FEC29
:1007A000808310929901E0919501F091960186E085
:1007B0008083E0919301F091940180818061808336
:1007C000E0919301F0919401808188608083E091B1
:1007D0009301F0919401808180688083E09193017E
:1007E000F091940180818F7D808361E082E00E949E
:1007F000D80060E083E00E94D80061E084E00E94BD
:10080000D80060E085E00E94D80061E086E00E94A8
:10081000D80060E087E00E94D80061E089E00E9493
:10082000D80060E08AE00E94D80061E088E00E9481
:10083000D80060E088E00E948C00C0E0D0E06AE070
:1008400070E089E090E00E9448026A3071058105FD
:1008500091050CF071C061E088E00E948C0082E19B
:1008600091E00E943B028AE291E00E943B0263E039
:1008700070E082E090E00E9448022B013C0165E0BC
:1008800070E084E090E00E9448024B015C0167E068
:1008900070E086E090E00E9448026B017C012AE053
:1008A000421651046104710424F489E491E00E9429
:1008B0003B028AE088169104A104B10424F487E580
:1008C00091E00E943B022AE0C216D104E104F10447
:1008D00024F488E691E00E943B020E9409014B014A
:1008E0005C0184E6C82ED12CE12CF12C0E94090178
:1008F000681979098A099B09683E73408105910549
:10090000A8F381E0C81AD108E108F10828EE820EA8
:1009100023E0921EA11CB11CC114D104E104F10416
:1009200029F7209709F48BCF0E949801882309F4B6
:1009300086CF0E94000083CF60E088E00E948C0098
:100940008DE291E08ECFE1E8F1E01382128288EE31
:1009500093E0A0E0B0E084839583A683B78384E02E
:1009600091E09183808385EC90E09587848784EC87
:1009700090E09787868780EC90E0918B808B81EC6C
:1009800090E0938B828B82EC90E0958B848B86EC4D
:1009900090E0978B868B118E128E138E148E089595
:1009A000EE0FFF1F0590F491E02D09940E94DD04E5
:1009B0006894B1110C946C0508950E94510588F05B
:1009C0009F5798F0B92F9927B751B0F0E1F0660F13
:1009D000771F881F991F1AF0BA95C9F714C0B13054
:1009E00091F00E946B05B1E008950C946B05672FA0
:1009F000782F8827B85F39F0B93FCCF38695779583
:100A00006795B395D9F73EF490958095709561956B
:100A10007F4F8F4F9F4F0895E89409C097FB3EF496
:100A200090958095709561957F4F8F4F9F4F99233B
:100A3000A9F0F92F96E9BB279395F69587957795B9
:100A40006795B795F111F8CFFAF4BB0F11F460FF79
:100A50001BC06F5F7F4F8F4F9F4F16C0882311F0D1
:100A600096E911C0772321F09EE8872F762F05C0E5
:100A7000662371F096E8862F70E060E02AF09A9580
:100A8000660F771F881FDAF7880F9695879597F975
:100A9000089557FD9058440F551F59F05F3F71F06E
:100AA0004795880F97FB991F61F09F3F79F08795D5
:100AB0000895121613061406551FF2CF4695F1DF5E
:100AC00008C0161617061806991FF1CF86957105EE
:100AD000610508940895E894BB2766277727CB0122
:100AE00097F908950E9485050C94F6050E94E80583
:100AF00038F00E94EF0520F0952311F00C94DF05EB
:100B00000C94E50511240C946C050E94490570F3C2
:100B1000959FC1F3950F50E0551F629FF001729FA2
:100B2000BB27F00DB11D639FAA27F00DB11DAA1FB1
:100B3000649F6627B00DA11D661F829F2227B00DFE
:100B4000A11D621F739FB00DA11D621F839FA00D89
:100B5000611D221F749F3327A00D611D231F849FD9
:100B6000600D211D822F762F6A2F11249F57504030
:100B70009AF0F1F088234AF0EE0FFF1FBB1F661FAB
:100B8000771F881F91505040A9F79E3F510580F074
:100B90000C94DF050C946C055F3FE4F3983ED4F3AE
:100BA000869577956795B795F795E7959F5FC1F718
:100BB000FE2B880F911D9695879597F9089597F9C3
:100BC0009F6780E870E060E008959FEF80EC0895F3
:100BD00000240A941616170618060906089500241C
:100BE0000A9412161306140605060895092E039496
:100BF000000C11F4882352F0BB0F40F4BF2B11F40A
:100C000060FF04C06F5F7F4F8F4F9F4F0895F89430
:020C1000FFCF14
:100C120000000000CE012E015B011B028C016A0163
:100C22007E01207C205374617475733A2042617294
:100C3200616E67204D6173756B000D0A00207C2088
:100C42005374617475733A20546964616B20416412
:100C52006120426172616E6700426F7820313A20F2
:100C620050454E55482000207C20426F7820323A71
:100C72002050454E55482000207C20426F7820337A
:080C82003A2050454E55480090
:00000001FF
