:100000000C9462000C948A000C948A000C948A0070
:100010000C948A000C948A000C948A000C948A0038
:100020000C948A000C948A000C948A000C945E0351
:100030000C948A000C948A000C948A000C948A0018
:100040000C94BC020C948A000C942C030C940603B0
:100050000C948A000C948A000C948A000C948A00F8
:100060000C948A000C948A000000000023002600F3
:10007000290000000000240027002A0000000000E2
:10008000250028002B0004040404040404040202D4
:100090000202020203030303030301020408102007
:1000A0004080010204081020010204081020000012
:1000B0000008000201000003040700000000000027
:1000C00000005F0411241FBECFEFD8E0DEBFCDBF1C
:1000D00011E0A0E0B1E0E2ECF1E102C005900D9288
:1000E000A231B107D9F721E0A2E1B1E001C01D9230
:1000F000AB3EB207E1F710E0C2E6D0E004C02197C2
:10010000FE010E94A807C136D107C9F70E94D60494
:100110000C94DF080C94000090E0FC01E255FF4FC6
:100120002491FC01E656FF4F3491FC01EA57FF4F42
:10013000E491EE23C9F0222339F0233001F1A8F431
:10014000213019F1223029F1F0E0EE0FFF1FE458C1
:10015000FF4FA591B4918FB7F894EC91611126C02F
:1001600030953E233C938FBF08952730A9F0283067
:10017000C9F0243049F7809180008F7D03C08091C1
:1001800080008F7780938000DFCF84B58F7784BD28
:10019000DBCF84B58F7DFBCF8091B0008F778093CC
:1001A000B000D2CF8091B0008F7DF9CF3E2BDACF57
:1001B000CF93DF9390E0FC01E656FF4F24918A57DE
:1001C0009F4FFC0184918823D1F090E0880F991F04
:1001D000FC01EE58FF4FA591B491FC01E458FF4F8C
:1001E000C591D49161110EC09FB7F8948C91E22F04
:1001F000E0958E238C932881E223E8839FBFDF91D3
:10020000CF9108958FB7F894EC91E22BEC938FBFC8
:10021000F6CF3FB7F89480911F0190912001A091F3
:100220002101B091220126B5A89B05C02F3F19F0EE
:100230000196A11DB11D3FBFBA2FA92F982F882766
:10024000BC01CD01620F711D811D911D42E0660F41
:10025000771F881F991F4A95D1F708952FB7F894F3
:1002600060911B0170911C0180911D0190911E01F4
:100270002FBF0895AF92BF92CF92DF92EF92FF927D
:100280000F931F93CF93DF936C017B018B01040FBE
:10029000151FEB015E01AE18BF08C017D10759F05A
:1002A0006991D601ED91FC910190F081E02DC6019C
:1002B0000995892B79F7C501DF91CF911F910F9196
:1002C000FF90EF90DF90CF90BF90AF900895FC012A
:1002D000538D448D252F30E0842F90E0821B930BAB
:1002E000541710F0CF96089501970895FC01918D51
:1002F000828D981761F0A28DAE0FBF2FB11D5D9654
:100300008C91928D9F5F9F73928F90E008958FEFF5
:100310009FEF0895FC01918D828D981731F0828DA9
:10032000E80FF11D858D90E008958FEF9FEF089500
:10033000FC01918D228D892F90E0805C9F4F821B64
:1003400091098F739927089583E291E00E949801A3
:1003500021E0892B09F420E0822F089580E090E0CD
:10036000892B29F00E94A40181110C9400000895AA
:10037000FC01A48DA80FB92FB11DA35ABF4F2C911A
:10038000848D90E001968F739927848FA689B78911
:100390002C93A089B1898C91837080648C93938D08
:1003A000848D981306C00288F389E02D80818F7DAB
:1003B00080830895EF92FF920F931F93CF93DF9363
:1003C000EC0181E0888F9B8D8C8D98131AC0E88991
:1003D000F989808185FF15C09FB7F894EE89FF8960
:1003E0006083E889F98980818370806480839FBFFE
:1003F00081E090E0DF91CF911F910F91FF90EF90FE
:100400000895F62E0B8D10E00F5F1F4F0F7311270D
:10041000E02E8C8D8E110CC00FB607FCFACFE88948
:10042000F989808185FFF5CFCE010E94B801F1CF17
:10043000EB8DEC0FFD2FF11DE35AFF4FF0829FB7BC
:10044000F8940B8FEA89FB8980818062CFCFCF93AC
:10045000DF93EC01888D8823B9F0AA89BB89E889EC
:10046000F9898C9185FD03C0808186FD0DC00FB692
:1004700007FCF7CF8C9185FFF2CF808185FFEDCF10
:10048000CE010E94B801E9CFDF91CF9108958F92FC
:100490009F92AF92BF92FF920F931F93CF93DF93E0
:1004A000FC01F0808BE08F1508F44AC0828108E5DA
:1004B00012E0081B110987FD1395000F111F000F93
:1004C000111F8181C8E8D0E0C81BD10987FDD395F1
:1004D000CC0FDD1FCC0FDD1F4E010D2E000CAA0826
:1004E000BB089801012E000C440B550B2819390943
:1004F0004A095B09DB010E94630724EB30E040E01E
:1005000050E00E943907820E931EA41EB51E8C1661
:100510009D062CF0E801801691060CF4E401229768
:10052000CC0FDD1F2FB7F8948F2D90E0FC01EE0F5C
:10053000FF1FE80FF91FE054FE4FD283C1832FBF86
:10054000DF91CF911F910F91FF90BF90AF909F903F
:100550008F900895892B79F41092800082E0809327
:1005600081001092850010928400B19A80916F00F2
:10057000826080936F0008951F920F920FB60F92C2
:1005800011242F933F938F939F93AF93BF938091A9
:100590001B0190911C01A0911D01B0911E01309191
:1005A0001A0123E0230F2D3758F50196A11DB11D27
:1005B00020931A0180931B0190931C01A0931D01AD
:1005C000B0931E0180911F0190912001A091210103
:1005D000B09122010196A11DB11D80931F0190933E
:1005E0002001A0932101B0932201BF91AF919F916F
:1005F0008F913F912F910F900FBE0F901F901895E4
:1006000026E8230F0296A11DB11DD2CF1F920F9293
:100610000FB60F9211242F933F934F935F936F93D5
:100620007F938F939F93AF93BF93EF93FF9383E257
:1006300091E00E94B801FF91EF91BF91AF919F911E
:100640008F917F916F915F914F913F912F910F907B
:100650000FBE0F901F9018951F920F920FB60F921A
:1006600011242F938F939F93EF93FF93E091330186
:10067000F09134018081E0913901F0913A0182FDDD
:100680001BC0908180913C018F5F8F7320913D0151
:10069000821741F0E0913C01F0E0ED5DFE4F958F57
:1006A00080933C01FF91EF919F918F912F910F903B
:1006B0000FBE0F901F9018958081F4CF1F920F925C
:1006C0000FB60F9211242F933F934F935F936F9325
:1006D0007F938F939F93AF93BF93CF93DF93EF93CA
:1006E000FF9380911201C091E401D0E087FF24C004
:1006F0001092850010928400809112018F5F809388
:10070000120180911201082E000C990B8C179D0785
:1007100024F4809112018C30C4F180918400909176
:100720008500049680349C4908F47AC08091840046
:1007300090918500049676C080911201082E000CDD
:10074000990B8C179D07C4F6E09112018E2FEE0FC6
:10075000990BFC01EE0FFF1FE80FF91FE054FE4F4D
:10076000808186FFC9CFE09112018E2FEE0F990B89
:10077000FC01EE0FFF1FE80FF91FE054FE4F8081D0
:1007800060E08F730E948C00B7CF2091840030917D
:100790008500E09112018E2FEE0F990BFC01EE0FF8
:1007A000FF1FE80FF91FE054FE4F81819281820FF5
:1007B000931F9093890080938800E09112018E2FFF
:1007C000EE0F990BFC01EE0FFF1FE80FF91FE0542D
:1007D000FE4F808186FF11C0E09112018E2FEE0F37
:1007E000990BFC01EE0FFF1FE80FF91FE054FE4FBD
:1007F000808161E08F730E948C00FF91EF91DF9107
:10080000CF91BF91AF919F918F917F916F915F91A8
:100810004F913F912F910F900FBE0F901F90189501
:1008200080E49CE990938900809388008FEF809307
:100830001201E3CFCF92DF92EF92FF920F931F93BB
:10084000E82FF92F05C0015011092109310961F183
:10085000908196239417B9F305C00150110921091D
:10086000310911F1908196239413F7CFC12CD12C2B
:10087000E12CF12C0AC08FEFC81AD80AE80AF80A4E
:100880000C151D052E053F0579F080818623841700
:1008900091F36C2D7D2D8E2D9F2D1F910F91FF902B
:1008A000EF90DF90CF90089560E070E080E090E0FE
:1008B0001F910F91FF90EF90DF90CF9008951092CD
:1008C00026011092250188EE93E0A0E0B0E080932D
:1008D000270190932801A0932901B0932A0184E075
:1008E00091E0909324018093230185EC90E0909314
:1008F000300180932F0184EC90E09093320180933B
:10090000310180EC90E0909334018093330181ECCD
:1009100090E0909336018093350182EC90E09093C3
:1009200038018093370186EC90E090933A018093F0
:10093000390110923C0110923D0110923E0110923B
:100940003F018091E4018C3048F591E0980F90933D
:10095000E4018093E80190E0FC01EE0FFF1FE80F37
:10096000F91FE054FE4F88EB9BE0928381838091D6
:10097000E4018C30B8F491E0980F9093E4018093F7
:10098000E50190E0FC01EE0FFF1FE80FF91FE054B6
:10099000FE4F88EB9BE09283818308958FEF8093D5
:1009A000E801E5CF8FEF8093E5010895789484B551
:1009B000826084BD84B5816084BD85B5826085BD5B
:1009C00085B5816085BD80916E00816080936E00E9
:1009D00010928100809181008260809381008091DB
:1009E000810081608093810080918000816080938C
:1009F00080008091B10084608093B1008091B0004C
:100A000081608093B00080917A00846080937A0046
:100A100080917A00826080937A0080917A00816070
:100A200080937A0080917A00806880937A00109297
:100A3000C100E0913301F091340182E08083E091C4
:100A40002F01F09130011082E0913101F0913201DB
:100A50008FEC808310923B01E0913701F0913801D7
:100A600086E08083E0913501F091360180818061DC
:100A70008083E0913501F091360180818860808328
:100A8000E0913501F0913601808180688083E091AA
:100A90003501F091360180818F7D808361E082E0B5
:100AA0000E94D80060E083E00E94D80061E084E00A
:100AB0000E94D80060E085E00E94D80061E086E0F6
:100AC0000E94D80060E087E00E94D80061E089E0E1
:100AD0000E94D80060E08AE00E94D80061E088E0CF
:100AE0000E94D80060E088E00E948C008091E801BC
:100AF0008C3008F043C061E08BE00E94D800809108
:100B0000E801282F30E0F901EE0FFF1FE20FF31F7D
:100B1000E054FE4F9081907C9B6090831092E9019D
:100B20001092EA012CE0622F0E949C0790E0829FC5
:100B3000B001112430E020E0AB01420F531FFA0155
:100B4000EE0FFF1FE40FF51FE054FE4F408146FDFE
:100B500007C02F5F3F4F2C30310571F70E94AA026A
:100B6000E091E8018E2F90E0FC01EE0FFF1FE80FEF
:100B7000F91FE054FE4F8081806480838091E501FD
:100B80008C3008F043C061E08CE00E94D800809176
:100B9000E501282F30E0F901EE0FFF1FE20FF31FF0
:100BA000E054FE4F9081907C9C6090831092E6010F
:100BB0001092E7012CE0622F0E949C0790E0829F38
:100BC000B001112430E020E0AB01420F531FFA01C5
:100BD000EE0FFF1FE40FF51FE054FE4F408146FD6E
:100BE00007C02F5F3F4F2C30310571F70E94AA02DA
:100BF000E091E5018E2F90E0FC01EE0FFF1FE80F62
:100C0000F91FE054FE4F80818064808370E060E0D3
:100C100088EE91E00E94470270E060E085EE91E08E
:100C20000E94470223E2422E512C612C712C30E0AD
:100C3000232E30E0332EC1E0D0E060E089E00E9456
:100C40008C0083E090E00197F1F761E089E00E9479
:100C50008C0083E290E00197F1F760E089E00E9468
:100C60008C00E4EAF0E06491E0E9F0E08491E82FA0
:100C7000F0E0EE0FFF1FE859FF4F8591949100E3DC
:100C800015E720E030E0462F0E941A046115710537
:100C90008105910529F06F5F7F4F8F4F9F4F9F70A8
:100CA0000E94E60726E933E44BE05DE30E944A0830
:100CB00020E030E040E05FE30E944A080E94AE0777
:100CC0006B017C01F1E0CF1AD108E108F10822E2C2
:100CD000C216D104E104F10408F04DC0A301920151
:100CE000261B370B480B590BDA01C9010697A105E2
:100CF000B1050CF440C061E088E00E948C0064E41F
:100D000083E291E00E94DA010E942E016B017C01D6
:100D100083E291E00E949801892B59F40E942E01F0
:100D20006C197D098E099F09683873418105910509
:100D300078F383E291E00E947601009709F077C092
:100D4000D0931401C09313010E942E0160931501EA
:100D500070931601809317019093180181E080939E
:100D600019016AE570E088EE91E00E94470260E0B8
:100D700088E00E948C0080911901882339F10E943B
:100D80002E01C0901501D0901601E0901701F0904F
:100D900018016C197D098E099F09603D7740810516
:100DA0009105A0F08091130190911401813091057B
:100DB00009F057C070E060E088EE91E00E944702C1
:100DC0001092190110921401109213010E9409014E
:100DD0004B015C0188EEC82E83E0D82EE12CF12C6B
:100DE0000E940901681979098A099B09683E7340C4
:100DF00081059105A8F351E0C51AD108E108F10871
:100E000088EE880E83E0981EA11CB11CC114D10489
:100E1000E104F10429F72114310409F40ECF0E94F2
:100E2000A401882309F409CF0E94000006CF823074
:100E3000910509F09CCF90931401809313010E94B7
:100E40002E01609315017093160180931701909302
:100E5000180181E0809319016AE570E085EE91E068
:100E600084CF029709F0ACCF70E060E085EE91E0AE
:100E7000A5CF052E97FB1EF400940E94500757FD46
:100E800007D00E946B0707FC03D04EF40C94500768
:100E900050954095309521953F4F4F4F5F4F0895A6
:100EA00090958095709561957F4F8F4F9F4F0895D6
:100EB0000E948D07A59F900DB49F900DA49F800D5B
:100EC000911D11240895B7FF0C9458070E945807EC
:100ED000821B930B0895A1E21A2EAA1BBB1BFD01D6
:100EE0000DC0AA1FBB1FEE1FFF1FA217B307E40709
:100EF000F50720F0A21BB30BE40BF50B661F771F61
:100F0000881F991F1A9469F7609570958095909540
:100F10009B01AC01BD01CF010895A29FB001B39F19
:100F2000C001A39F700D811D1124911DB29F700DF2
:100F3000811D1124911D0895991B79E004C0991F0A
:100F4000961708F0961B881F7A95C9F78095089523
:100F5000EE0FFF1F0590F491E02D09940E94B50754
:100F60006894B1110C94440808950E94290888F0EF
:100F70009F5798F0B92F9927B751B0F0E1F0660F5D
:100F8000771F881F991F1AF0BA95C9F714C0B1309E
:100F900091F00E944308B1E008950C944308672F34
:100FA000782F8827B85F39F0B93FCCF386957795CD
:100FB0006795B395D9F73EF49095809570956195B6
:100FC0007F4F8F4F9F4F0895E89409C097FB3EF4E1
:100FD00090958095709561957F4F8F4F9F4F992386
:100FE000A9F0F92F96E9BB279395F6958795779504
:100FF0006795B795F111F8CFFAF4BB0F11F460FFC4
:101000001BC06F5F7F4F8F4F9F4F16C0882311F01B
:1010100096E911C0772321F09EE8872F762F05C02F
:10102000662371F096E8862F70E060E02AF09A95CA
:10103000660F771F881FDAF7880F9695879597F9BF
:10104000089557FD9058440F551F59F05F3F71F0B8
:101050004795880F97FB991F61F09F3F79F087951F
:101060000895121613061406551FF2CF4695F1DFA8
:1010700008C0161617061806991FF1CF8695710538
:10108000610508940895E894BB2766277727CB016C
:1010900097F908950E945D080C94CE080E94C0083C
:1010A00038F00E94C70820F0952311F00C94B7087F
:1010B0000C94BD0811240C9444080E94210870F37C
:1010C000959FC1F3950F50E0551F629FF001729FED
:1010D000BB27F00DB11D639FAA27F00DB11DAA1FFC
:1010E000649F6627B00DA11D661F829F2227B00D49
:1010F000A11D621F739FB00DA11D621F839FA00DD4
:10110000611D221F749F3327A00D611D231F849F23
:10111000600D211D822F762F6A2F11249F5750407A
:101120009AF0F1F088234AF0EE0FFF1FBB1F661FF5
:10113000771F881F91505040A9F79E3F510580F0BE
:101140000C94B7080C9444085F3FE4F3983ED4F342
:10115000869577956795B795F795E7959F5FC1F762
:10116000FE2B880F911D9695879597F9089597F90D
:101170009F6780E870E060E008959FEF80EC08953D
:1011800000240A9416161706180609060895002466
:101190000A9412161306140605060895092E0394E0
:1011A000000C11F4882352F0BB0F40F4BF2B11F454
:1011B00060FF04C06F5F7F4F8F4F9F4F0895F8947B
:0211C000FFCF5F
:1011C20000000000DA013A01670127029801760166
:0211D2008A0190
:00000001FF
